:020000000000fe
:02000100000df0
:020002000019e3
:020003000026d5
:020004000032c8
:02000500003fba
:02000600004bad
:0200070000589f
:02000800006492
:02000900007184
:02000a00007e76
:02000b00008a69
:02000c0000975b
:02000d0000a34e
:02000e0000b040
:02000f0000bc33
:0200100000c925
:0200110000d518
:0200120000e20a
:0200130000eefd
:0200140000fbef
:020015000107e1
:020016000113d4
:020017000120c6
:02001800012cb9
:020019000139ab
:02001a0001459e
:02001b00015290
:02001c00015e83
:02001d00016a76
:02001e00017768
:02001f0001835b
:02002000018f4e
:02002100019c40
:0200220001a833
:0200230001b426
:0200240001c118
:0200250001cd0b
:0200260001d9fe
:0200270001e5f1
:0200280001f1e4
:0200290001fed6
:02002a00020ac8
:02002b000216bb
:02002c000222ae
:02002d00022ea1
:02002e00023a94
:02002f00024687
:0200300002527a
:02003100025e6d
:02003200026a60
:02003300027653
:02003400028246
:02003500028e39
:02003600029a2c
:0200370002a61f
:0200380002b212
:0200390002bd06
:02003a0002c9f9
:02003b0002d5ec
:02003c0002e1df
:02003d0002ecd3
:02003e0002f8c6
:02003f000304b8
:02004000030fac
:02004100031b9f
:02004200032792
:02004300033286
:02004400033e79
:0200450003496d
:02004600035461
:02004700036054
:02004800036b48
:0200490003773b
:02004a0003822f
:02004b00038d23
:02004c00039817
:02004d0003a40a
:02004e0003affe
:02004f0003baf2
:0200500003c5e6
:0200510003d0da
:0200520003dbce
:0200530003e6c2
:0200540003f1b6
:0200550003fcaa
:0200560004079d
:02005700041291
:02005800041c86
:0200590004277a
:02005a0004326e
:02005b00043d62
:02005c00044757
:02005d0004524b
:02005e00045c40
:02005f00046734
:02006000047129
:02006100047c1d
:02006200048612
:02006300049007
:02006400049bfb
:0200650004a5f0
:0200660004afe5
:0200670004b9da
:0200680004c3cf
:0200690004cdc4
:02006a0004d7b9
:02006b0004e1ae
:02006c0004eba3
:02006d0004f598
:02006e0004ff8d
:02006f00050981
:02007000051376
:02007100051c6c
:02007200052661
:02007300053056
:0200740005394c
:02007500054341
:02007600054c37
:0200770005552d
:02007800055f22
:02007900056818
:02007a0005710e
:02007b00057a04
:02007c000583fa
:02007d00058def
:02007e000596e5
:02007f00059fdb
:0200800005a7d2
:0200810005b0c8
:0200820005b9be
:0200830005c2b4
:0200840005cbaa
:0200850005d3a1
:0200860005dc97
:0200870005e48e
:0200880005ed84
:0200890005f57b
:02008a0005fd72
:02008b00060667
:02008c00060e5e
:02008d00061655
:02008e00061e4c
:02008f00062643
:02009000062e3a
:02009100063631
:02009200063e28
:0200930006461f
:02009400064e16
:0200950006550e
:02009600065d05
:020097000665fc
:02009800066cf4
:020099000674eb
:02009a00067be3
:02009b000682db
:02009c00068ad2
:02009d000691ca
:02009e000698c2
:02009f00069fba
:0200a00006a6b2
:0200a10006adaa
:0200a20006b4a2
:0200a30006bb9a
:0200a40006c193
:0200a50006c88b
:0200a60006cf83
:0200a70006d57c
:0200a80006dc74
:0200a90006e26d
:0200aa0006e965
:0200ab0006ef5e
:0200ac0006f557
:0200ad0006fb50
:0200ae00070148
:0200af00070741
:0200b000070d3a
:0200b100071333
:0200b20007192c
:0200b300071f25
:0200b40007241f
:0200b500072a18
:0200b600073011
:0200b70007350b
:0200b800073a05
:0200b9000740fe
:0200ba000745f8
:0200bb00074af2
:0200bc00074fec
:0200bd000754e6
:0200be000759e0
:0200bf00075eda
:0200c0000763d4
:0200c1000768ce
:0200c200076dc8
:0200c3000771c3
:0200c4000776bd
:0200c500077ab8
:0200c600077fb2
:0200c7000783ad
:0200c8000787a8
:0200c900078ca2
:0200ca0007909d
:0200cb00079498
:0200cc00079893
:0200cd00079c8e
:0200ce00079f8a
:0200cf0007a385
:0200d00007a780
:0200d10007aa7c
:0200d20007ae77
:0200d30007b173
:0200d40007b56e
:0200d50007b86a
:0200d60007bb66
:0200d70007bf61
:0200d80007c25d
:0200d90007c559
:0200da0007c855
:0200db0007ca52
:0200dc0007cd4e
:0200dd0007d04a
:0200de0007d346
:0200df0007d543
:0200e00007d83f
:0200e10007da3c
:0200e20007dc39
:0200e30007df35
:0200e40007e132
:0200e50007e32f
:0200e60007e52c
:0200e70007e729
:0200e80007e926
:0200e90007eb23
:0200ea0007ec21
:0200eb0007ee1e
:0200ec0007f01b
:0200ed0007f119
:0200ee0007f316
:0200ef0007f414
:0200f00007f512
:0200f10007f610
:0200f20007f70e
:0200f30007f80c
:0200f40007f90a
:0200f50007fa08
:0200f60007fb06
:0200f70007fc04
:0200f80007fd02
:0200f90007fd01
:0200fa0007feff
:0200fb0007fefe
:0200fc0007fefd
:0200fd0007fffb
:0200fe0007fffa
:0200ff0007fff9
:00000001FF
