:020000000000fe
:020001000019e4
:020002000032ca
:02000300004bb0
:02000400006496
:02000500007e7b
:02000600009761
:0200070000b047
:0200080000c92d
:0200090000e213
:02000a0000fbf9
:02000b000113df
:02000c00012cc5
:02000d000145ab
:02000e00015e91
:02000f00017777
:02001000018f5e
:0200110001a844
:0200120001c12a
:0200130001d911
:0200140001f1f8
:02001500020add
:020016000222c4
:02001700023aab
:02001800025292
:02001900026a79
:02001a00028260
:02001b00029a47
:02001c0002b22e
:02001d0002c916
:02001e0002e1fd
:02001f0002f8e5
:02002000030fcc
:020021000327b3
:02002200033e9b
:02002300035484
:02002400036b6c
:02002500038254
:0200260003983d
:0200270003af25
:0200280003c50e
:0200290003dbf7
:02002a0003f1e0
:02002b000407c8
:02002c00041cb2
:02002d0004329b
:02002e00044785
:02002f00045c6f
:02003000047159
:02003100048643
:02003200049b2d
:0200330004af18
:0200340004c303
:0200350004d7ee
:0200360004ebd9
:0200370004ffc4
:020038000513ae
:0200390005269a
:02003a00053986
:02003b00054c72
:02003c00055f5e
:02003d0005714b
:02003e00058338
:02003f00059624
:0200400005a712
:0200410005b9ff
:0200420005cbec
:0200430005dcda
:0200440005edc8
:0200450005fdb7
:02004600060ea4
:02004700061e93
:02004800062e82
:02004900063e71
:02004a00064e60
:02004b00065d50
:02004c00066c40
:02004d00067b30
:02004e00068a20
:02004f00069811
:0200500006a602
:0200510006b4f3
:0200520006c1e5
:0200530006cfd6
:0200540006dcc8
:0200550006e9ba
:0200560006f5ad
:0200570007019f
:02005800070d92
:02005900071985
:02005a00072479
:02005b0007306c
:02005c00073a61
:02005d00074555
:02005e00074f4a
:02005f0007593f
:02006000076334
:02006100076d29
:0200620007761f
:02006300077f15
:0200640007870c
:02006500079002
:020066000798f9
:02006700079ff1
:0200680007a7e8
:0200690007aee0
:02006a0007b5d8
:02006b0007bbd1
:02006c0007c2c9
:02006d0007c8c2
:02006e0007cdbc
:02006f0007d3b5
:0200700007d8af
:0200710007dcaa
:0200720007e1a4
:0200730007e59f
:0200740007e99a
:0200750007ec96
:0200760007f091
:0200770007f38d
:0200780007f58a
:0200790007f787
:02007a0007f984
:02007b0007fb81
:02007c0007fd7e
:02007d0007fe7c
:02007e0007fe7b
:02007f0007ff79
:0200800007ff78
:0200810007ff77
:0200820007fe77
:0200830007fe76
:0200840007fd76
:0200850007fb77
:0200860007f978
:0200870007f779
:0200880007f57a
:0200890007f37b
:02008a0007f07d
:02008b0007ec80
:02008c0007e982
:02008d0007e585
:02008e0007e188
:02008f0007dc8c
:0200900007d88f
:0200910007d393
:0200920007cd98
:0200930007c89c
:0200940007c2a1
:0200950007bba7
:0200960007b5ac
:0200970007aeb2
:0200980007a7b8
:02009900079fbf
:02009a000798c5
:02009b000790cc
:02009c000787d4
:02009d00077fdb
:02009e000776e3
:02009f00076deb
:0200a0000763f4
:0200a1000759fd
:0200a200074f06
:0200a30007450f
:0200a400073a19
:0200a500073022
:0200a60007242d
:0200a700071937
:0200a800070d42
:0200a90007014d
:0200aa0006f559
:0200ab0006e964
:0200ac0006dc70
:0200ad0006cf7c
:0200ae0006c189
:0200af0006b495
:0200b00006a6a2
:0200b1000698af
:0200b200068abc
:0200b300067bca
:0200b400066cd8
:0200b500065de6
:0200b600064ef4
:0200b700063e03
:0200b800062e12
:0200b900061e21
:0200ba00060e30
:0200bb0005fd41
:0200bc0005ed50
:0200bd0005dc60
:0200be0005cb70
:0200bf0005b981
:0200c00005a792
:0200c1000596a2
:0200c2000583b4
:0200c3000571c5
:0200c400055fd6
:0200c500054ce8
:0200c6000539fa
:0200c70005260c
:0200c80005131e
:0200c90004ff32
:0200ca0004eb45
:0200cb0004d758
:0200cc0004c36b
:0200cd0004af7e
:0200ce00049b91
:0200cf000486a5
:0200d0000471b9
:0200d100045ccd
:0200d2000447e1
:0200d3000432f5
:0200d400041c0a
:0200d50004071e
:0200d60003f134
:0200d70003db49
:0200d80003c55e
:0200d90003af73
:0200da00039889
:0200db0003829e
:0200dc00036bb4
:0200dd000354ca
:0200de00033edf
:0200df000327f5
:0200e000030f0c
:0200e10002f823
:0200e20002e139
:0200e30002c950
:0200e40002b266
:0200e500029a7d
:0200e600028294
:0200e700026aab
:0200e8000252c2
:0200e900023ad9
:0200ea000222f0
:0200eb00020a07
:0200ec0001f120
:0200ed0001d937
:0200ee0001c14e
:0200ef0001a866
:0200f000018f7e
:0200f100017795
:0200f200015ead
:0200f3000145c5
:0200f400012cdd
:0200f5000113f5
:0200f60000fb0d
:0200f70000e225
:0200f80000c93d
:0200f90000b055
:0200fa0000976d
:0200fb00007e85
:0200fc0000649e
:0200fd00004bb6
:0200fe000032ce
:0200ff000019e6
:00000001FF
