:020000000000fe
:020001000026d7
:02000200004bb1
:0200030000718a
:02000400009763
:0200050000bc3d
:0200060000e216
:020007000107ef
:02000800012cc9
:020009000152a2
:02000a0001777c
:02000b00019c56
:02000c0001c130
:02000d0001e50b
:02000e00020ae4
:02000f00022ebf
:0200100002529a
:02001100027675
:02001200029a50
:0200130002bd2c
:0200140002e107
:020015000304e2
:020016000327be
:0200170003499b
:02001800036b78
:02001900038d55
:02001a0003af32
:02001b0003d010
:02001c0003f1ee
:02001d000412cb
:02001e000432aa
:02001f00045289
:02002000047169
:02002100049049
:0200220004af29
:0200230004cd0a
:0200240004ebeb
:020025000509cb
:020026000526ad
:0200270005438f
:02002800055f72
:02002900057a56
:02002a00059639
:02002b0005b01e
:02002c0005cb02
:02002d0005e4e8
:02002e0005fdce
:02002f000616b3
:02003000062e9a
:02003100064681
:02003200065d69
:02003300067451
:02003400068a3a
:02003500069f24
:0200360006b40e
:0200370006c8f9
:0200380006dce4
:0200390006efd0
:02003a000701bc
:02003b000713a9
:02003c00072497
:02003d00073585
:02003e00074574
:02003f00075464
:02004000076354
:02004100077145
:02004200077f36
:02004300078c28
:0200440007981b
:0200450007a30f
:0200460007ae03
:0200470007b8f8
:0200480007c2ed
:0200490007cae4
:02004a0007d3da
:02004b0007dad2
:02004c0007e1ca
:02004d0007e7c3
:02004e0007ecbd
:02004f0007f1b7
:0200500007f5b2
:0200510007f8ae
:0200520007fbaa
:0200530007fda7
:0200540007fea5
:0200550007ffa3
:0200560007ffa2
:0200570007fea2
:0200580007fda2
:0200590007faa4
:02005a0007f7a6
:02005b0007f4a8
:02005c0007f0ab
:02005d0007ebaf
:02005e0007e5b4
:02005f0007dfb9
:0200600007d8bf
:0200610007d0c6
:0200620007c8cd
:0200630007bfd5
:0200640007b5de
:0200650007aae8
:02006600079ff2
:020067000794fc
:02006800078708
:02006900077a14
:02006a00076d20
:02006b00075e2e
:02006c00074f3c
:02006d0007404a
:02006e00073059
:02006f00071f69
:02007000070d7a
:0200710006fb8c
:0200720006e99d
:0200730006d5b0
:0200740006c1c3
:0200750006add6
:020076000698ea
:020077000682ff
:02007800066c14
:0200790006552a
:02007a00063e40
:02007b00062657
:02007c00060e6e
:02007d0005f587
:02007e0005dc9f
:02007f0005c2b8
:0200800005a7d2
:02008100058deb
:02008200057106
:02008300055521
:0200840005393c
:02008500051c58
:0200860004ff75
:0200870004e192
:0200880004c3af
:0200890004a5cc
:02008a000486ea
:02008b00046708
:02008c00044727
:02008d00042746
:02008e00040765
:02008f0003e686
:0200900003c5a6
:0200910003a4c6
:020092000382e7
:02009300036008
:02009400033e29
:02009500031b4b
:0200960002f86e
:0200970002d590
:0200980002b2b2
:02009900028ed5
:02009a00026af8
:02009b0002461b
:02009c0002223e
:02009d0001fe62
:02009e0001d986
:02009f0001b4aa
:0200a000018fce
:0200a100016af2
:0200a200014516
:0200a30001203a
:0200a40000fb5f
:0200a50000d584
:0200a60000b0a8
:0200a700008acd
:0200a8000064f2
:0200a900003f16
:0200aa0000193b
:0200ab000ff351
:0200ac000fce75
:0200ad000fa89a
:0200ae000f82bf
:0200af000f5de3
:0200b0000f3708
:0200b1000f122c
:0200b2000eed51
:0200b3000ec776
:0200b4000ea29a
:0200b5000e7dbe
:0200b6000e58e2
:0200b7000e3306
:0200b8000e0f29
:0200b9000dea4e
:0200ba000dc671
:0200bb000da294
:0200bc000d7eb7
:0200bd000d5ada
:0200be000d37fc
:0200bf000d141e
:0200c0000cf141
:0200c1000cce63
:0200c2000cac84
:0200c3000c89a6
:0200c4000c68c6
:0200c5000c46e7
:0200c6000c2507
:0200c7000c0427
:0200c8000be447
:0200c9000bc367
:0200ca000ba485
:0200cb000b84a4
:0200cc000b65c2
:0200cd000b47df
:0200ce000b29fc
:0200cf000b0b19
:0200d0000aed37
:0200d1000ad053
:0200d2000ab46e
:0200d3000a9889
:0200d4000a7da3
:0200d5000a61be
:0200d6000a47d7
:0200d7000a2df0
:0200d8000a1309
:0200d90009fa22
:0200da0009e239
:0200db0009ca50
:0200dc0009b267
:0200dd00099b7d
:0200de00098592
:0200df00096fa7
:0200e000095abb
:0200e1000945cf
:0200e2000931e2
:0200e300091ef4
:0200e400090b06
:0200e50008f918
:0200e60008e729
:0200e70008d639
:0200e80008c648
:0200e90008b657
:0200ea0008a765
:0200eb00089873
:0200ec00088a80
:0200ed00087d8c
:0200ee00087098
:0200ef000864a3
:0200f0000859ad
:0200f100084fb6
:0200f2000845bf
:0200f300083bc8
:0200f4000833cf
:0200f500082bd6
:0200f6000824dc
:0200f700081de2
:0200f8000817e7
:0200f9000812eb
:0200fa00080def
:0200fb00080af1
:0200fc000807f3
:0200fd000804f5
:0200fe000802f6
:0200ff000801f6
:00000001FF
