:0200000007fff8
:0200010007fff7
:0200020007fef7
:0200030007fef6
:0200040007fdf6
:0200050007fbf7
:0200060007f9f8
:0200070007f7f9
:0200080007f5fa
:0200090007f3fb
:02000a0007f0fd
:02000b0007ec00
:02000c0007e902
:02000d0007e505
:02000e0007e108
:02000f0007dc0c
:0200100007d80f
:0200110007d313
:0200120007cd18
:0200130007c81c
:0200140007c221
:0200150007bb27
:0200160007b52c
:0200170007ae32
:0200180007a738
:02001900079f3f
:02001a00079845
:02001b0007904c
:02001c00078754
:02001d00077f5b
:02001e00077663
:02001f00076d6b
:02002000076374
:0200210007597d
:02002200074f86
:0200230007458f
:02002400073a99
:020025000730a2
:020026000724ad
:020027000719b7
:02002800070dc2
:020029000701cd
:02002a0006f5d9
:02002b0006e9e4
:02002c0006dcf0
:02002d0006cffc
:02002e0006c109
:02002f0006b415
:0200300006a622
:0200310006982f
:02003200068a3c
:02003300067b4a
:02003400066c58
:02003500065d66
:02003600064e74
:02003700063e83
:02003800062e92
:02003900061ea1
:02003a00060eb0
:02003b0005fdc1
:02003c0005edd0
:02003d0005dce0
:02003e0005cbf0
:02003f0005b901
:0200400005a712
:02004100059622
:02004200058334
:02004300057145
:02004400055f56
:02004500054c68
:0200460005397a
:0200470005268c
:0200480005139e
:0200490004ffb2
:02004a0004ebc5
:02004b0004d7d8
:02004c0004c3eb
:02004d0004affe
:02004e00049b11
:02004f00048625
:02005000047139
:02005100045c4d
:02005200044761
:02005300043275
:02005400041c8a
:0200550004079e
:0200560003f1b4
:0200570003dbc9
:0200580003c5de
:0200590003aff3
:02005a00039809
:02005b0003821e
:02005c00036b34
:02005d0003544a
:02005e00033e5f
:02005f00032775
:02006000030f8c
:0200610002f8a3
:0200620002e1b9
:0200630002c9d0
:0200640002b2e6
:02006500029afd
:02006600028214
:02006700026a2b
:02006800025242
:02006900023a59
:02006a00022270
:02006b00020a87
:02006c0001f1a0
:02006d0001d9b7
:02006e0001c1ce
:02006f0001a8e6
:02007000018ffe
:02007100017715
:02007200015e2d
:02007300014545
:02007400012c5d
:02007500011375
:0200760000fb8d
:0200770000e2a5
:0200780000c9bd
:0200790000b0d5
:02007a000097ed
:02007b00007e05
:02007c0000641e
:02007d00004b36
:02007e0000324e
:02007f00001966
:0200800000007e
:020081000fe787
:020082000fce9f
:020083000fb5b7
:020084000f9ccf
:020085000f82e8
:020086000f6900
:020087000f5018
:020088000f3730
:020089000f1e48
:02008a000f0560
:02008b000eed78
:02008c000ed490
:02008d000ebba8
:02008e000ea2c0
:02008f000e89d8
:020090000e71ef
:020091000e5807
:020092000e3f1f
:020093000e2736
:020094000e0f4d
:020095000df666
:020096000dde7d
:020097000dc694
:020098000daeab
:020099000d96c2
:02009a000d7ed9
:02009b000d66f0
:02009c000d4e07
:02009d000d371d
:02009e000d1f34
:02009f000d084a
:0200a0000cf161
:0200a1000cd978
:0200a2000cc28e
:0200a3000caca3
:0200a4000c95b9
:0200a5000c7ecf
:0200a6000c68e4
:0200a7000c51fa
:0200a8000c3b0f
:0200a9000c2524
:0200aa000c0f39
:0200ab000bf94f
:0200ac000be463
:0200ad000bce78
:0200ae000bb98c
:0200af000ba4a0
:0200b0000b8fb4
:0200b1000b7ac8
:0200b2000b65dc
:0200b3000b51ef
:0200b4000b3d02
:0200b5000b2915
:0200b6000b1528
:0200b7000b013b
:0200b8000aed4f
:0200b9000ada61
:0200ba000ac773
:0200bb000ab485
:0200bc000aa197
:0200bd000a8fa8
:0200be000a7db9
:0200bf000a6acb
:0200c0000a59db
:0200c1000a47ec
:0200c2000a35fd
:0200c3000a240d
:0200c4000a131d
:0200c5000a032c
:0200c60009f23d
:0200c70009e24c
:0200c80009d25b
:0200c90009c26a
:0200ca0009b279
:0200cb0009a387
:0200cc00099495
:0200cd000985a3
:0200ce000976b1
:0200cf000968be
:0200d000095acb
:0200d100094cd8
:0200d200093fe4
:0200d3000931f1
:0200d4000924fd
:0200d500091709
:0200d600090b14
:0200d70008ff20
:0200d80008f32b
:0200d90008e736
:0200da0008dc40
:0200db0008d04b
:0200dc0008c654
:0200dd0008bb5e
:0200de0008b167
:0200df0008a770
:0200e000089d79
:0200e100089382
:0200e200088a8a
:0200e300088192
:0200e400087999
:0200e5000870a1
:0200e6000868a8
:0200e7000861ae
:0200e8000859b5
:0200e9000852bb
:0200ea00084bc1
:0200eb000845c6
:0200ec00083ecc
:0200ed000838d1
:0200ee000833d5
:0200ef00082dda
:0200f0000828de
:0200f1000824e1
:0200f200081fe5
:0200f300081be8
:0200f4000817eb
:0200f5000814ed
:0200f6000810f0
:0200f700080df2
:0200f800080bf3
:0200f9000809f4
:0200fa000807f5
:0200fb000805f6
:0200fc000803f7
:0200fd000802f7
:0200fe000802f6
:0200ff000801f6
:00000001FF
