:0200000007fff8
:0200010007fff7
:0200020007fff6
:0200030007fff5
:0200040007fef5
:0200050007fef4
:0200060007fef3
:0200070007fdf3
:0200080007fdf2
:0200090007fcf2
:02000a0007fbf2
:02000b0007faf2
:02000c0007f9f2
:02000d0007f8f2
:02000e0007f7f2
:02000f0007f6f2
:0200100007f5f2
:0200110007f4f2
:0200120007f3f2
:0200130007f1f3
:0200140007f0f3
:0200150007eef4
:0200160007ecf5
:0200170007ebf5
:0200180007e9f6
:0200190007e7f7
:02001a0007e5f8
:02001b0007e3f9
:02001c0007e1fa
:02001d0007dffb
:02001e0007dcfd
:02001f0007dafe
:0200200007d8ff
:0200210007d501
:0200220007d302
:0200230007d004
:0200240007cd06
:0200250007ca08
:0200260007c809
:0200270007c50b
:0200280007c20d
:0200290007bf0f
:02002a0007bb12
:02002b0007b814
:02002c0007b516
:02002d0007b119
:02002e0007ae1b
:02002f0007aa1e
:0200300007a720
:0200310007a323
:02003200079f26
:02003300079c28
:0200340007982b
:0200350007942e
:02003600079031
:02003700078c34
:02003800078738
:0200390007833b
:02003a00077f3e
:02003b00077a42
:02003c00077645
:02003d00077149
:02003e00076d4c
:02003f00076850
:02004000076354
:02004100075e58
:0200420007595c
:02004300075460
:02004400074f64
:02004500074a68
:0200460007456c
:02004700074070
:02004800073a75
:02004900073579
:02004a0007307d
:02004b00072a82
:02004c00072487
:02004d00071f8b
:02004e00071990
:02004f00071395
:02005000070d9a
:0200510007079f
:020052000701a4
:0200530006fbaa
:0200540006f5af
:0200550006efb4
:0200560006e9b9
:0200570006e2bf
:0200580006dcc4
:0200590006d5ca
:02005a0006cfcf
:02005b0006c8d5
:02005c0006c1db
:02005d0006bbe0
:02005e0006b4e6
:02005f0006adec
:0200600006a6f2
:02006100069ff8
:020062000698fe
:02006300069104
:02006400068a0a
:02006500068211
:02006600067b17
:0200670006741d
:02006800066c24
:0200690006652a
:02006a00065d31
:02006b00065538
:02006c00064e3e
:02006d00064645
:02006e00063e4c
:02006f00063653
:02007000062e5a
:02007100062661
:02007200061e68
:0200730006166f
:02007400060e76
:0200750006067d
:0200760005fd86
:0200770005f58d
:0200780005ed94
:0200790005e49c
:02007a0005dca3
:02007b0005d3ab
:02007c0005cbb2
:02007d0005c2ba
:02007e0005b9c2
:02007f0005b0ca
:0200800005a7d2
:02008100059fd9
:020082000596e1
:02008300058de9
:020084000583f2
:02008500057afa
:02008600057102
:0200870005680a
:02008800055f12
:0200890005551b
:02008a00054c23
:02008b0005432b
:02008c00053934
:02008d0005303c
:02008e00052645
:02008f00051c4e
:02009000051356
:0200910005095f
:0200920004ff69
:0200930004f572
:0200940004eb7b
:0200950004e184
:0200960004d78d
:0200970004cd96
:0200980004c39f
:0200990004b9a8
:02009a0004afb1
:02009b0004a5ba
:02009c00049bc3
:02009d000490cd
:02009e000486d6
:02009f00047cdf
:0200a0000471e9
:0200a1000467f2
:0200a200045cfc
:0200a300045205
:0200a40004470f
:0200a500043d18
:0200a600043222
:0200a70004272c
:0200a800041c36
:0200a90004123f
:0200aa00040749
:0200ab0003fc54
:0200ac0003f15e
:0200ad0003e668
:0200ae0003db72
:0200af0003d07c
:0200b00003c586
:0200b10003ba90
:0200b20003af9a
:0200b30003a4a4
:0200b4000398af
:0200b500038db9
:0200b6000382c3
:0200b7000377cd
:0200b800036bd8
:0200b9000360e2
:0200ba000354ed
:0200bb000349f7
:0200bc00033e01
:0200bd0003320c
:0200be00032716
:0200bf00031b21
:0200c000030f2c
:0200c100030436
:0200c20002f842
:0200c30002ec4d
:0200c40002e157
:0200c50002d562
:0200c60002c96d
:0200c70002bd78
:0200c80002b282
:0200c90002a68d
:0200ca00029a98
:0200cb00028ea3
:0200cc000282ae
:0200cd000276b9
:0200ce00026ac4
:0200cf00025ecf
:0200d0000252da
:0200d1000246e5
:0200d200023af0
:0200d300022efb
:0200d400022206
:0200d500021611
:0200d600020a1c
:0200d70001fe28
:0200d80001f134
:0200d90001e53f
:0200da0001d94a
:0200db0001cd55
:0200dc0001c160
:0200dd0001b46c
:0200de0001a877
:0200df00019c82
:0200e000018f8e
:0200e100018399
:0200e2000177a4
:0200e300016ab0
:0200e400015ebb
:0200e5000152c6
:0200e6000145d2
:0200e7000139dd
:0200e800012ce9
:0200e9000120f4
:0200ea00011300
:0200eb0001070b
:0200ec0000fb17
:0200ed0000ee23
:0200ee0000e22e
:0200ef0000d53a
:0200f00000c945
:0200f10000bc51
:0200f20000b05c
:0200f30000a368
:0200f400009773
:0200f500008a7f
:0200f600007e8a
:0200f700007196
:0200f8000064a2
:0200f9000058ad
:0200fa00004bb9
:0200fb00003fc4
:0200fc000032d0
:0200fd000026db
:0200fe000019e7
:0200ff00000df2
:00000001FF
