:0200000007fff8
:0200010007fff7
:0200020007fef7
:0200030007fcf8
:0200040007f9fa
:0200050007f6fc
:0200060007f3fe
:0200070007ee02
:0200080007e906
:0200090007e30b
:02000a0007dc11
:02000b0007d517
:02000c0007cd1e
:02000d0007c525
:02000e0007bb2e
:02000f0007b137
:0200100007a740
:02001100079c4a
:02001200079055
:02001300078361
:0200140007766d
:0200150007687a
:02001600075988
:02001700074a96
:02001800073aa5
:02001900072ab4
:02001a000719c4
:02001b000707d5
:02001c0006f5e7
:02001d0006e2f9
:02001e0006cf0b
:02001f0006bb1e
:0200200006a632
:02002100069146
:02002200067b5b
:02002300066570
:02002400064e86
:0200250006369d
:02002600061eb4
:020027000606cb
:0200280005ede4
:0200290005d3fd
:02002a0005b916
:02002b00059f2f
:02002c0005834a
:02002d00056864
:02002e00054c7f
:02002f0005309a
:020030000513b6
:0200310004f5d4
:0200320004d7f1
:0200330004b90e
:02003400049b2b
:02003500047c49
:02003600045c68
:02003700043d86
:02003800041ca6
:0200390003fcc6
:02003a0003dbe6
:02003b0003ba06
:02003c00039827
:02003d00037747
:02003e00035469
:02003f0003328a
:02004000030fac
:0200410002eccf
:0200420002c9f1
:0200430002a613
:02004400028236
:02004500025e59
:02004600023a7c
:0200470002169f
:0200480001f1c4
:0200490001cde7
:02004a0001a80b
:02004b0001832f
:02004c00015e53
:02004d00013977
:02004e0001139c
:02004f0000eec1
:0200500000c9e5
:0200510000a30a
:02005200007e2e
:02005300005853
:02005400003278
:02005500000d9c
:020056000fe7b2
:020057000fc1d7
:020058000f9cfb
:020059000f7620
:02005a000f5045
:02005b000f2b69
:02005c000f058e
:02005d000ee0b3
:02005e000ebbd7
:02005f000e96fb
:020060000e711f
:020061000e4c43
:020062000e2767
:020063000e028b
:020064000ddeaf
:020065000dbad2
:020066000d96f5
:020067000d7218
:020068000d4e3b
:020069000d2b5d
:02006a000d087f
:02006b000ce5a2
:02006c000cc2c4
:02006d000ca0e5
:02006e000c7e06
:02006f000c5c27
:020070000c3b47
:020071000c1a67
:020072000bf988
:020073000bd9a7
:020074000bb9c6
:020075000b99e5
:020076000b7a03
:020077000b5b21
:020078000b3d3e
:020079000b1f5b
:02007a000b0178
:02007b000ae495
:02007c000ac7b1
:02007d000aabcc
:02007e000a8fe7
:02007f000a7302
:020080000a591b
:020081000a3e35
:020082000a244e
:020083000a0b66
:0200840009f27f
:0200850009da96
:0200860009c2ad
:0200870009abc3
:020088000994d9
:02008900097eee
:02008a00096803
:02008b00095317
:02008c00093f2a
:02008d00092b3d
:02008e00091750
:02008f00090561
:0200900008f373
:0200910008e184
:0200920008d094
:0200930008c0a3
:0200940008b1b1
:0200950008a2bf
:020096000893cd
:020097000886d9
:020098000879e5
:02009900086cf1
:02009a000861fb
:02009b00085605
:02009c00084b0f
:02009d00084118
:02009e00083820
:02009f00083027
:0200a00008282e
:0200a100082134
:0200a200081b39
:0200a30008153e
:0200a400081042
:0200a500080c45
:0200a600080947
:0200a700080649
:0200a80008034b
:0200a90008024b
:0200aa0008014b
:0200ab0008014a
:0200ac00080248
:0200ad00080346
:0200ae00080543
:0200af0008083f
:0200b000080b3b
:0200b100080f36
:0200b200081430
:0200b30008192a
:0200b400081f23
:0200b50008261b
:0200b600082d13
:0200b700083609
:0200b800083e00
:0200b9000848f5
:0200ba000852ea
:0200bb00085dde
:0200bc000868d2
:0200bd000874c5
:0200be000881b7
:0200bf00088fa8
:0200c000089d99
:0200c10008ac89
:0200c20008bb79
:0200c30008cb68
:0200c40008dc56
:0200c50008ed44
:0200c60008ff31
:0200c70009111d
:0200c800092409
:0200c9000938f4
:0200ca00094cdf
:0200cb000961c9
:0200cc000976b3
:0200cd00098c9c
:0200ce0009a384
:0200cf0009ba6c
:0200d00009d253
:0200d10009ea3a
:0200d2000a031f
:0200d3000a1c05
:0200d4000a35eb
:0200d5000a50cf
:0200d6000a6ab4
:0200d7000a8697
:0200d8000aa17b
:0200d9000abd5e
:0200da000ada40
:0200db000af722
:0200dc000b1502
:0200dd000b33e3
:0200de000b51c4
:0200df000b70a4
:0200e0000b8f84
:0200e1000bae64
:0200e2000bce43
:0200e3000bee22
:0200e4000c0fff
:0200e5000c30dd
:0200e6000c51bb
:0200e7000c7398
:0200e8000c9575
:0200e9000cb752
:0200ea000cd92f
:0200eb000cfc0b
:0200ec000d1fe6
:0200ed000d43c1
:0200ee000d669d
:0200ef000d8a78
:0200f0000dae53
:0200f1000dd22e
:0200f2000df609
:0200f3000e1be2
:0200f4000e3fbd
:0200f5000e6497
:0200f6000e8971
:0200f7000eae4b
:0200f8000ed424
:0200f9000ef9fe
:0200fa000f1ed7
:0200fb000f44b0
:0200fc000f698a
:0200fd000f8f63
:0200fe000fb53c
:0200ff000fda16
:00000001FF
